{
  "contractName": "Splitter",
  "abi": [
    {
      "inputs": [
        {
          "name": "_bob",
          "type": "address"
        },
        {
          "name": "_carol",
          "type": "address"
        }
      ],
      "payable": true,
      "stateMutability": "payable",
      "type": "constructor"
    },
    {
      "constant": false,
      "inputs": [],
      "name": "splitValue",
      "outputs": [],
      "payable": true,
      "stateMutability": "payable",
      "type": "function"
    }
  ],
  "bytecode": "0x60806040526040516040806103438339810180604052810190808051906020019092919080519060200190929190505050336000806101000a81548173ffffffffffffffffffffffffffffffffffffffff021916908373ffffffffffffffffffffffffffffffffffffffff16021790555081600160006101000a81548173ffffffffffffffffffffffffffffffffffffffff021916908373ffffffffffffffffffffffffffffffffffffffff16021790555080600260006101000a81548173ffffffffffffffffffffffffffffffffffffffff021916908373ffffffffffffffffffffffffffffffffffffffff160217905550600073ffffffffffffffffffffffffffffffffffffffff168273ffffffffffffffffffffffffffffffffffffffff161415151561012e57600080fd5b600073ffffffffffffffffffffffffffffffffffffffff168173ffffffffffffffffffffffffffffffffffffffff161415151561016a57600080fd5b50506101c88061017b6000396000f300608060405260043610610041576000357c0100000000000000000000000000000000000000000000000000000000900463ffffffff168063609d640d14610046575b600080fd5b61004e610050565b005b600080341180156100ad57506000809054906101000a900473ffffffffffffffffffffffffffffffffffffffff1673ffffffffffffffffffffffffffffffffffffffff163373ffffffffffffffffffffffffffffffffffffffff16145b15156100b857600080fd5b6002348115156100c457fe5b049050600160009054906101000a900473ffffffffffffffffffffffffffffffffffffffff1673ffffffffffffffffffffffffffffffffffffffff166108fc829081150290604051600060405180830381858888f1935050505015801561012f573d6000803e3d6000fd5b50600260009054906101000a900473ffffffffffffffffffffffffffffffffffffffff1673ffffffffffffffffffffffffffffffffffffffff166108fc829081150290604051600060405180830381858888f19350505050158015610198573d6000803e3d6000fd5b50505600a165627a7a72305820ff2e1d75fb09327cc3c3e738a859f12d105c5936ce9725416db9d125c6d96cc70029",
  "source": "pragma solidity ^0.4.24;\n\ncontract Splitter {\n   //declare variables\n   address alice;\n   address bob;\n   address carol;\n\n  constructor(address _bob, address _carol) public payable {\n    //set the owner\n    alice = msg.sender;\n    //set Bob and Carol (established at time of deployment--would be nice if there was a mechanism to update them)\n    bob = _bob;\n    carol = _carol;\n    require(_bob != address(0));\n    require(_carol !=address(0));\n  }\n\n\n  //accept amounts from Alice and split them between Bob and Carol\n  function splitValue() public payable  {\n   require((msg.value > 0) && (msg.sender == alice));\n   uint halfMsgValue = msg.value/2;\n   bob.transfer(halfMsgValue);\n   carol.transfer(halfMsgValue);\n  }\n}\n",
  "sourcePath": "/home/le_wraith/Solidity_Code/DAPPS/Splitter/contracts/Splitter.sol",
  "compiler": {
    "name": "solc",
    "version": "0.4.24+commit.e67f0147.Emscripten.clang"
  },
  "schemaVersion": "2.0.1",
  "updatedAt": "2018-12-01T22:07:57.910Z"
}