{
  "contractName": "Splitter",
  "abi": [
    {
      "inputs": [
        {
          "name": "_Bob",
          "type": "address"
        },
        {
          "name": "_Carol",
          "type": "address"
        }
      ],
      "payable": true,
      "stateMutability": "payable",
      "type": "constructor"
    },
    {
      "constant": false,
      "inputs": [],
      "name": "splitBalance",
      "outputs": [],
      "payable": true,
      "stateMutability": "payable",
      "type": "function"
    }
  ],
  "bytecode": "0x60806040526040516040806102ea8339810180604052810190808051906020019092919080519060200190929190505050336000806101000a81548173ffffffffffffffffffffffffffffffffffffffff021916908373ffffffffffffffffffffffffffffffffffffffff16021790555081600160006101000a81548173ffffffffffffffffffffffffffffffffffffffff021916908373ffffffffffffffffffffffffffffffffffffffff16021790555080600260006101000a81548173ffffffffffffffffffffffffffffffffffffffff021916908373ffffffffffffffffffffffffffffffffffffffff16021790555050506101e7806101036000396000f300608060405260043610610041576000357c0100000000000000000000000000000000000000000000000000000000900463ffffffff168063449c847c14610046575b600080fd5b61004e610050565b005b5a6006819055506006543403600381905550600260035481151561007057fe5b04600481905550600454600354036005819055506000809054906101000a900473ffffffffffffffffffffffffffffffffffffffff1673ffffffffffffffffffffffffffffffffffffffff163373ffffffffffffffffffffffffffffffffffffffff1614156101b457600160009054906101000a900473ffffffffffffffffffffffffffffffffffffffff1673ffffffffffffffffffffffffffffffffffffffff166108fc6004549081150290604051600060405180830381858888f19350505050158015610143573d6000803e3d6000fd5b50600260009054906101000a900473ffffffffffffffffffffffffffffffffffffffff1673ffffffffffffffffffffffffffffffffffffffff166108fc6005549081150290604051600060405180830381858888f193505050501580156101ae573d6000803e3d6000fd5b506101b9565b600080fd5b5600a165627a7a72305820fae730a7e2dc8b4dd50478047eda8a9c084e9665844f712b19e587db38bcd27a0029",
  "source": "pragma solidity ^0.4.24;\n\ncontract Splitter {\n   //declare variables\n   address Alice;\n   address Bob;\n   address Carol;\n   uint balance;\n   uint halfBalance;\n   uint remainderBalance;\n   uint gas;\n\n  constructor(address _Bob, address _Carol) public payable {\n    //set the owner\n    Alice = msg.sender;\n    //set Bob and Carol (established at time of deployment--would be nice if there was a mechanism to update them)\n    Bob = _Bob;\n    Carol = _Carol;\n  }\n\n\n  //accept amounts from Alice and split them between Bob and Carol (but Carol gets slightly less if msg.value is not event)\n  function splitBalance() public payable  {\n   gas = gasleft();\n   balance = msg.value - gas;\n   halfBalance = balance/2;\n   remainderBalance = balance - halfBalance;\n   if (msg.sender == Alice) {\n     Bob.transfer(halfBalance);\n     Carol.transfer(remainderBalance);\n   } else {\n    revert();\n   }\n  }\n}",
  "sourcePath": "/home/le_wraith/Solidity_Code/DAPPS/Splitter/contracts/Splitter.sol",
  "compiler": {
    "name": "solc",
    "version": "0.4.24+commit.e67f0147.Emscripten.clang"
  },
  "schemaVersion": "2.0.1",
  "updatedAt": "2018-11-23T23:21:35.314Z"
}